:020000040800F2
:10000000800B0020B97F0008090300080B030008DB
:100010000F03000813030008170300080000000086
:100020000000000000000000000000001B030008AA
:100030001D030008000000001F0300082103000842
:10004000D37F0008D37F0008D37F0008F324000883
:10005000D37F0008D37F0008D37F0008D37F000838
:10006000D37F0008D37F0008D37F0008D37F000828
:10007000D37F0008D37F0008D37F0008D37F000818
:10008000D37F0008D37F0008D37F0008D37F000808
:10009000D37F0008D37F0008D37F0008D37F0008F8
:1000A000D37F0008D37F0008D37F0008D37F0008E8
:1000B000D37F0008D37F0008D37F0008D37F0008D8
:1000C000D37F0008D37F0008D37F0008D37F0008C8
:1000D000D37F00082F7F0008D37F0008D37F00085C
:1000E000D37F0008D37F0008D37F0008D37F0008A8
:1000F000D37F0008D37F0008D37F0008D37F000898
:10010000D37F0008D37F0008D37F0008D37F000887
:10011000D37F0008D37F0008D37F0008D37F000877
:10012000D37F0008D37F0008D37F0008D37F000867
:1001300000F002F800F042F80AA090E8000C8244B7
:100140008344AAF10107DA4501D100F037F8AFF294
:10015000090EBAE80F0013F0010F18BFFB1A43F0A5
:1001600001031847A4CB0000C4CB0000103A24BF01
:1001700078C878C1FAD8520724BF30C830C144BF0C
:1001800004680C607047000000230024002500264E
:10019000103A28BF78C1FBD8520728BF30C148BFEA
:1001A0000B607047642908F0C786782908F000873B
:1001B000002070471FB51FBD10B510BD08F0B0FF7F
:1001C0001146FFF7F7FF00F009F808F0CEFF03B47F
:1001D000FFF7F2FF03BC07F04FFE00000EB500244E
:1001E000002002900027092007F0EDFD4FF4E130D8
:1001F00007F051FE07F072FC00F0A8F94FF4A06080
:1002000007F0FAFE00F07EF900F044FC00F022FA5C
:1002100002F00FF9062001F028F802F036FA35A0B6
:1002200010210B46C822CDE900108C211E2007F0BA
:1002300021FC02F022FD5CE002AA0221432002F030
:100240008EFE0546002D54D19DF808009DF809103A
:1002500040EA0126002E4CD0102E1FD008DC012EC3
:1002600010D0022E10D0042E10D0082E26D111E06E
:10027000202E18D0402E1BD0802E1BD0B6F5807FAC
:100280001CD119E001271BE0012719E00127601CA0
:1002900044B215E00127601E44B211E00020194964
:1002A000086001270CE0012701201649086007E0DB
:1002B000012705E0012703E0012701E0002700BF37
:1002C00000BFB7B1C82007F046FC0027052C00DDB1
:1002D0000024002C00DA0524052C07D100F0F9F9E0
:1002E00000F07EFC0A2007F036FC02E0E0B200F0ED
:1002F0000BFEA1E750414A373632305532204F4B82
:100300000000000094812142704700BFFEE700BF5B
:10031000FEE700BFFEE700BFFEE77047704770478B
:10032000704700000CB50020019000906C480068F8
:1003300040F480306A49086000BF6948006800F4F2
:10034000003000900198401C0190009818B9019865
:10035000B0F5A06FF1D16248006800F4003010B130
:100360000120009001E0002000900098012843D176
:100370005C48006840F010005A4908600846006870
:1003800020F0030008600846006840F002000860A2
:1003900053484068524948600846406848600846EB
:1003A000406840F4806048600846406820F47C1053
:1003B00048600846406840F4E81048600846006815
:1003C00040F08070086000BF4548006800F0007091
:1003D0000028F9D04248406820F0030040494860B6
:1003E0000846406840F00200486000BF3C48406852
:1003F00000F00C000828F9D10CBD10B5FFF792FFF2
:1004000010BD10B53648006840F00100344908605E
:100410000846406834490840314948600846006849
:10042000324908402E4908600846006820F48020C0
:1004300008600846406820F4FE0048604FF41F0042
:100440008860FFF7DAFF4FF000602949086010BDAF
:1004500010B5002100200022214B5B6803F00C0145
:1004600021B1042906D0082928D107E0214B224CCC
:10047000236027E01F4B204C236023E0184B5B6870
:1004800003F47010164B5B6803F48032022303EB15
:10049000904022B9194B4343174C23600DE0104B99
:1004A0005B6803F4003323B1144B4343124C2360C5
:1004B00003E0104B4343104C236003E00D4B0E4C04
:1004C000236000BF00BF064B5B68C3F303130C4CF3
:1004D000E15C094B1B68CB40074C236010BD00005A
:1004E00000100240002002400000FFF8FFFFF6FE6F
:1004F00008ED00E000127A000000002000093D0035
:100500000400002008B50121482008F0FFF8202051
:10051000ADF8000010208DF8030003208DF80200D4
:100520006946084807F036FE2021064807F0DFFE3E
:100530006946054807F02EFE2021034807F0D7FE44
:1005400008BD0000000C01400018014008B5012161
:10055000442008F0DBF81820ADF8000048208DF8A2
:10056000030069462C4807F015FE0120ADF8000095
:1005700028208DF803006946284807F00BFE08BDC7
:1005800010B5044614B101202549087024480078AC
:1005900058B31021204807F090FE50B108211E48A2
:1005A00007F08BFE28B101211C4807F086FE0128C8
:1005B0001BD10A2007F0CFFA00201949087010213A
:1005C000154807F07AFE08B9012010BD082112482D
:1005D00007F073FE08B90220F7E701210F4807F082
:1005E0006CFE012815D10320EFE710210A4807F01F
:1005F00064FE01280DD10821074807F05EFE01289E
:1006000007D10121054807F058FE10B9012004491F
:1006100008700020D9E700000018014000080140E0
:100620001400002070B504460D462146FB4807F033
:1006300067FEFB4805600020FA49C1F89801FA49B5
:10064000086001200860F6490C310860F549C1F8DE
:100650008C0170BD70B500241CE004F1B001C8B27B
:100660000021FFF7DFFF00210846FFF7DBFF002135
:100670001020FFF7D7FF002508E0EC4901EBC5018A
:10068000085D0121FFF7CEFF681CC5B2802DF4DBA9
:10069000601CC4B2082CE0DB70BD10B500218D20B9
:1006A000FFF7C0FF00211420FFF7BCFF0021AF209F
:1006B000FFF7B8FF10BD10B500218D20FFF7B2FF86
:1006C00000211020FFF7AEFF0021AE20FFF7AAFFA8
:1006D00010BD70B500240CE0002506E00020D349D1
:1006E00001EBC5010855681CC5B2802DF6DB601C06
:1006F000C4B2082CF0DBFFF7ADFF70BDF0B51446B7
:1007000000267F2801DC3F2900DDF0BD0B46CF1716
:1007100001EB5777FF10C7F10707FAB2CF1701EBCC
:100720005777FF10A1EBC707FDB2C5F107070123FB
:10073000BB40DEB24CB1BD4B03EBC0039B5C33430B
:10074000BA4F07EBC007BB5408E0B84B03EBC0033C
:100750009B5CB343B54F07EBC007BB5400BFD4E766
:100760002DE9F04706460F4690469946DDF820A051
:1007700034460CE03D4606E0524629462046FFF747
:10078000BDFF681CC5B24D45F6DD601CC4B24445D2
:10079000F0DDFFF75FFFBDE8F0872DE9F84F8046F9
:1007A0000F4616461C46BA462046E31704EB537321
:1007B000DB1021464FEAE47C04EB5C7C4FEAEC0C56
:1007C000A4EBCC0CBCF1000F02D04FF0010C01E007
:1007D0004FF0000C6344224604EBD27C4FEA6C0CD1
:1007E00003FB0CF303F0FF0BA6F12000C6B20025BB
:1007F0004EE00C2C07D106EB46008D4901EB800042
:10080000405D009013E0102C05D18A4800EB0610E3
:10081000405D00900BE0182C07D106EBC60086491E
:1008200001EB8000405D009001E0BDE8F88F4FF0E3
:10083000000927E0009800F0800028B139464046C2
:100840000A9AFFF75BFF09E00A9808B9012000E067
:100850000020024639464046FFF750FF0098400608
:10086000000E0090781CC7B2A7EB0A00A04205D189
:10087000574608F1010000F0FF0806E009F1010009
:1008800000F0FF09B9F1080FD4DB00BF681CC5B246
:100890005D45AEDB00BFC8E710B50246012000E0B1
:1008A00050430B1EA1F10104E1B2F9D110BD2DE9B5
:1008B000FF4F81B0074691461E460E9D4FF0000A3D
:1008C000002439E0301B401EC1B20A20FFF7E4FFCC
:1008D000B9FBF0F00A21B0FBF1F201FB1208BAF10A
:1008E000000F16D1701EA04213DDB8F1000F0ED11B
:1008F0000120AB4605EBDB71491001FB0471009050
:10090000C8B22B4620220299FFF747FF12E04FF0B2
:10091000010A0120AB4605EBDB71491001FB0471B4
:100920000090C8B208F13001CAB22B460299FFF715
:1009300034FF00BF601CC4B2B442C3DB05B0BDE8E5
:10094000F08FF8B506460F4615461C4621E004EB2D
:10095000D4714910C1F18001B14202DA0026381980
:10096000C7B2C4F14000B84204DA00200646074688
:10097000FFF7AFFE012000902A7823463946304623
:10098000FFF70BFF204604EBD07106EB6101CEB2FE
:100990006D1C28787E2802DC28782028D7DAF8BD5C
:1009A0002DE9F84F80460E4617461C46B2462046B3
:1009B000E21704EB5272D2102146E31704EB537393
:1009C000DB10A4EBC3030BB1012300E000231A44A6
:1009D000624302F0FF0B002558E00C2C07D107EB17
:1009E0004700164901EBC000405D009009E0102C63
:1009F00005D1134800EB4710405D009001E0BDE8D1
:100A0000F88F4FF000093BE0009800F08000C8B17B
:100A1000314640460A9AFFF771FE1DE00010014082
:100A20008C81224200802242B801244240000020F2
:100A30000094000874980008649E0008C0AB000889
:100A4000A0AD00080A9808B9012000E00020024685
:100A500031464046FFF752FE00984006000E0090D7
:100A6000701CC6B2A6EB0A00A04205D1564608F19A
:100A7000010000F0FF0806E009F1010000F0FF09A5
:100A8000B9F1080FC0DB00BF681CC5B25D45A4DB2F
:100A900000BFB4E708B501214FF4987007F036FEA7
:100AA0004820ADF8000010208DF8030003208DF8D9
:100AB00002006946FB4807F06DFB4821F94807F042
:100AC00016FCFF20ADF800006946F74807F062FB0E
:100AD000FF21F54807F00BFC4FF46040ADF8000033
:100AE0006946F24807F056FB4FF46041EF4807F0C3
:100AF000FEFB0120EE490860EE49C1F88C010020A0
:100B0000ED490860642007F026F80120EB49C1F8A0
:100B1000BC010021AE20FFF785FD0021D520FFF7A5
:100B200081FD00215020FFF77DFD0021A820FFF767
:100B300079FD00213F20FFF775FD0021D320FFF74D
:100B400071FD00210846FFF76DFD00214020FFF7F1
:100B500069FD00218D20FFF765FD00211420FFF7BE
:100B600061FD00212020FFF75DFD00210220FFF73D
:100B700059FD0021A120FFF755FD0021C020FFF7FE
:100B800051FD0021DA20FFF74DFD00211220FFF773
:100B900049FD00218120FFF745FD0021EF20FFF7EF
:100BA00041FD0021D920FFF73DFD0021F120FFF795
:100BB00039FD0021DB20FFF735FD00213020FFF754
:100BC00031FD0021A420FFF72DFD0021A620FFF715
:100BD00029FD0021AF20FFF725FDFFF77AFD08BDB5
:100BE00038B5002410E1B6488078A04270D0B448EF
:100BF000847810200090B24882880423002108469F
:100C0000FFF755FE012010232D2200210090202007
:100C1000FFF7C3FDAA488079092811DC1020009055
:100C2000A7488279022300212820FFF740FE0120F7
:100C300010233022002100902820FFF7AEFD08E0AD
:100C4000102000909E488279022300212820FFF77F
:100C50002EFE012010232D22002100903820FFF7C6
:100C60009CFD9748C079092811DC10200090944819
:100C7000C279022300214020FFF719FE0120102332
:100C80003022002100904020FFF787FD08E010206F
:100C900000908B48C279022300214020FFF707FE15
:100CA0008748007A072837D2DFE800F0040B131AD0
:100CB00021282F00102383A214210020FFF741FEDA
:100CC0002AE0102381A214210020FFF73AFE23E03E
:100CD00090E010237FA214210020FFF732FE1BE0DA
:100CE00010237EA214210020FFF72BFE14E0102316
:100CF0007DA214210020FFF724FE0DE010237DA229
:100D000014210020FFF71DFE06E010237BA2142112
:100D10000020FFF716FE00BF00BF694800780928D1
:100D200011DC102000906648027802232821002060
:100D3000FFF7BDFD01201023302228210090002064
:100D4000FFF72BFD08E0102000905D480278022399
:100D500028210020FFF7ABFD012010233A22282193
:100D600000901846FFF719FD55484078092811DC16
:100D70001020009052484278022328211820FFF7C3
:100D800096FD012010233022282100901820FFF723
:100D900004FD08E0102000904948427802232821F1
:100DA0001820FFF784FD012010233A22282100900B
:100DB0000846FFF7F2FC42488078092811DC102031
:100DC00000903F488278022328213020FFF76FFDF2
:100DD000012010233022282100901046FFF7DDFC6F
:100DE00008E0102000903648827802232821302025
:100DF000FFF75DFDFFF72EFC0A2006F0ACFE002099
:100E000000F095FA00B100E0EDE600BF38BD70B526
:100E100004460D4605F1B001C8B20021FFF702FCFF
:100E2000102141EA14100021FFF7FCFB04F00F0130
:100E300041F001000021FFF7F5FB70BD2DE9F04303
:100E40000546002400260027A14600BF25E015F82E
:100E50000480002616E008F0800028B101224946EF
:100E60003846FFF74BFC04E0002249463846FFF7BE
:100E700045FC4FEA48604FEA106809F1010000F0B4
:100E8000FF09761C082EE6D3601C00F0070018B995
:100E90004FF00009781CC7B2641CB4F5806FD6D33C
:100EA000BDE8F08300140140001001400020014023
:100EB0009881224200802242BC0124420000244248
:100EC0004004002053756E64617900004D6F6E64BC
:100ED0006179000054756573646179005765646ECB
:100EE0006573646179000000546875727364617998
:100EF00000000000467269646179000053617475F6
:100F0000726461790000000038B50446052C14D2E3
:100F1000DFE804F0031465B6FD00FFF7DAFB1823E1
:100F200086A214211020FFF70CFD0C2385A230218E
:100F30002820FFF706FDFFF78DFBFCE0FFF7C9FB5C
:100F4000012010230022114600901046FFF728FDD3
:100F5000012010230246002100901846FFF720FDD3
:100F6000012010230222002100902020FFF718FD0D
:100F7000012010230322002100903020FFF710FDF4
:100F80000C2372A211210020FFF7DBFC01200C23AF
:100F90000422112100901846FFF702FD01200C23C6
:100FA0000522112100901820FFF7FAFC0C2368A2FB
:100FB0001E210020FFF7C5FC01200C2306221E2164
:100FC00000901846FFF7ECFC01200C2307221E219D
:100FD00000901820FFF7E4FCFFF73CFBABE0FFF7C5
:100FE00078FB012010230422002100900846FFF71F
:100FF000D7FC012010230522002100901846FFF79E
:10100000CFFC012010230622002100902020FFF7B2
:10101000C7FC012010230722002100903020FFF799
:10102000BFFC01200C230822112100900020FFF7B3
:10103000B7FC01200C230922112100901846FFF76C
:10104000AFFC0C2343A211211820FFF77AFC0120EA
:101050000C230A221E2100900020FFF7A1FC012092
:101060000C230B221E2100901846FFF799FC0C233D
:1010700038A21E211820FFF764FCFFF7EBFA5AE0B4
:10108000FFF727FB012010230822002100900846CB
:10109000FFF786FC0120102309220021009018464A
:1010A000FFF77EFC01201023062200210090202063
:1010B000FFF776FC0120102307220021009030204A
:1010C000FFF76EFC01200C23082211210090002064
:1010D000FFF766FC01200C2309221121009018461D
:1010E000FFF75EFC0C231DA211211820FFF729FC3D
:1010F00001200C230A221E2100900020FFF750FC43
:1011000001200C230B221E210090184600E00AE06B
:10111000FFF746FC0C2311A21E211820FFF711FC3B
:10112000FFF798FA07E0FFF7D4FA0E48FFF786FEBC
:10113000FFF790FA00BF00BF38BD000057454C4391
:101140004F4D45004C2026205A000000313A000047
:10115000323A00003A203130300000003A20353970
:101160000000000020B0000808B50121042007F0AD
:10117000CDFA0220ADF8000010208DF80300032006
:101180008DF8020069467C4807F004F802217A488D
:1011900007F0AFF8052006F0DEFC0021774800F0EC
:1011A000C3FF0521754801F005F804208DF8030000
:1011B0006946714806F0EEFF08BD10B5FFF7D4FF91
:1011C0000AE06E4800F0D3FF4FF60B61884203DD62
:1011D0006A4800F0CCFF10BD0421684800F0CDFF44
:1011E0000028EED0654800F0B8FFF4E730B587B0CE
:1011F00005460C460121082007F095FA012104203C
:1012000007F084FA0220ADF8180003208DF81A00C8
:1012100004208DF81B0006A9574806F0BBFFADF867
:101220001050ADF80C400020ADF81200ADF80E00E3
:1012300003A9524800F088F90420ADF8000000200E
:10124000ADF802000120ADF804000020ADF8060062
:101250000320ADF808006946484800F008FC012169
:10126000464800F0CDFC07B030BDF0B585B007466C
:10127000781E81B24FF6FF70FFF7B8FF002408E038
:10128000FFF79BFF2DF814000A2006F064FC601C99
:10129000C4B20A2CF4DB002416E0601CC5B20FE0D7
:1012A0003DF814003DF81510884207DD3DF8146044
:1012B0003DF815002DF814002DF81560681CC5B216
:1012C0000A2DEDDB601CC4B2092CE6DB00260224EB
:1012D00005E03DF81400304486B2601CC4B2082C0E
:1012E000F7DB062096FBF0F02549088008460188C8
:1012F00024A007F0E1FD22480088B0F5004F02DB92
:10130000012005B0F0BD0020FBE770B506460024C3
:10131000002505E0FFF751FF0446AC4200DD2546FD
:10132000301EA6F10101CEB2F4D1284670BD2DE9E0
:10133000F0410546002603271DB106270020174966
:1013400008703846FFF7E1FF04460D480088643016
:10135000844206DD1148007800B9012603200F49B8
:1013600008700E48007820B10C480078401E0B49E8
:1013700008703046BDE8F08100080140000C0040D4
:1013800016000020747061645F64656661756C743A
:101390005F76616C3A25640D0A0000001800002099
:1013A00010B50446FE48844208D10121C01407F05C
:1013B000C7F90021E01407F0C3F9C4E0B4F1804F8D
:1013C00008D10121084607F0C8F90021012007F0E3
:1013D000C4F9B8E0F348844208D10121022007F0A3
:1013E000BCF90021022007F0B8F9ACE0EE488442D5
:1013F00008D10121042007F0B0F90021042007F0F2
:10140000ACF9A0E0E948844208D10121082007F0A6
:10141000A4F90021082007F0A0F994E0E4488442F0
:1014200008D10121102007F098F90021102007F0C1
:1014300094F988E0DF48844208D10121202007F098
:101440008CF90021202007F088F97CE0DA488442FA
:1014500008D10121401407F073F90021601407F04E
:101460006FF970E0D548844209D10121C80407F022
:1014700067F900214FF4002007F062F963E0D048DB
:10148000844209D10121080507F05AF900214FF4DF
:10149000801007F055F956E0CA48844209D101216D
:1014A000480507F04DF900214FF4001007F048F906
:1014B00049E0C548844208D10121402007F04DF998
:1014C0000021402007F049F93DE0C048844208D19E
:1014D0000121802007F041F90021802007F03DF92B
:1014E00031E0BB48844208D10121801507F035F96D
:1014F0000021A01507F031F925E0B648844209D152
:101500000121080407F01CF900214FF4803007F096
:1015100017F918E0B048844209D10121480407F0C6
:101520000FF900214FF4003007F00AF90BE0AB4847
:10153000844208D10121880407F002F900214FF408
:10154000802007F0FDF810BD00220288944B9842DD
:101550000ED0994B98420BD0B0F1804F08D0914BF0
:10156000984205D0904B984202D0904B984204D1BB
:101570004FF68F731A404B881A438D4B984207D011
:101580008C4B984204D04FF6FF431A40CB881A4345
:1015900002808B8883850B880385814B98420BD012
:1015A000854B984208D08B4B984205D08A4B984285
:1015B00002D08A4B984201D10B7A038601238382A1
:1015C000704770B5002400220023058C4FF6FE768C
:1015D00035400584028C8388048B4FF68F752C4030
:1015E000B51E2C400D882C43751E2A400D892A43B8
:1015F0004D882A436A4DA8420BD06F4DA84208D0AF
:10160000744DA84205D0744DA84202D0734DA84233
:1016100013D14FF6F7752A404D892A434FF6FB75D3
:101620002A408D882A434FF6FF652B404FF6FF5521
:101630002B408D892B43CD892B4383800483CD8818
:101640008586028470BD70B5002400220023058CBD
:101650004FF6EF7635400584028C8388048B48F67C
:10166000FF752C404FF6FF452C400D884FF6FF7656
:1016700006EA05252C434FF6DF752A400D8906EA58
:1016800005152A434D8806EA05152A43444DA8420C
:1016900002D0494DA8421DD14FF67F752A404D8991
:1016A0004FF6FF7606EA05152A434FF6BF752A4026
:1016B0008D8806EA05152A434FF6FF352B404FF279
:1016C000FF752B408D8906EA85052B43CD8906EAF7
:1016D00085052B4383800483CD880587028470BDF4
:1016E00070B5002400220023058C4FF6FF663540BC
:1016F0000584028C8388848B4FF68F752C404FF6BF
:10170000FC752C400D882C434FF6FF552A400D895F
:101710004FF6FF7606EA05252A434D8806EA052599
:101720002A431F4DA84202D0234DA8421DD14FF29B
:10173000FF752A404D894FF6FF7606EA05252A43B4
:101740004FF6FF352A408D8806EA05252A434EF6D6
:10175000FF752B404DF6FF752B408D8906EA051568
:101760002B43CD8906EA05152B4383808483CD88DE
:101770008587028470BD70B5002200230024058C8B
:101780004EF6FF7635400584038C8488828B48F6BC
:10179000FF752A404FF6FF452A400D8820E00000E3
:1017A000002C01400004004000080040000C0040F4
:1017B000001000400014004000340140004C014083
:1017C000005001400054014000180040001C00403F
:1017D000002000400040014000440140004801401A
:1017E0004FF6FF7606EA05252A434DF6FF752B4096
:1017F0000D8906EA05352B434D8806EA05352B434E
:10180000FA4DA84202D0FA4DA84208D14BF6FF7516
:101810002C408D894FF6FF7606EA85152C4384808F
:101820008283CD88A0F84050038470BD828B4FF234
:10183000FF331A408283828B4FF6FF7303EA012342
:101840001A4382837047F0B50C46154600220021EA
:101850000026078C4EF6FF7C07EA0C070784828B74
:10186000018C4FF6FF7707EA043640F6FF473A400F
:101870004FF6FF7707EA05273A434FF6FF7707EA67
:1018800003373A43D94FB8420ED0D94FB8420BD0A4
:10189000B0F1804F08D0D74FB84205D0D64FB842EC
:1018A00002D0D64FB84206D14DF6FF77394046F404
:1018B0008057394305E047F6FF57394044F48057D5
:1018C000394382830184F0BD828B4FF6F3731A4053
:1018D0008283828B0A4382837047F0B50C4615469B
:1018E000002200210026078C4FF6FF6C07EA0C0748
:1018F0000784828B018C4FF6FF7707EA04264FF6A8
:101900000C773A404FF6FF7707EA03172F433A4325
:10191000B64FB8420ED0B64FB8420BD0B0F1804FA0
:1019200008D0B44FB84205D0B34FB84202D0B34F3D
:10193000B84206D14FF6FF57394046F48077394315
:1019400005E04FF2FF57394044F4807739438283F2
:101950000184F0BD028B4FF2FF331A400283028BE9
:101960004FF6FF7303EA01231A4302837047F0B571
:101970000C461546002200210026078C4FF6EF7C0E
:1019800007EA0C070784028B018C4FF6FF7707EA02
:10199000041640F6FF473A404FF6FF7707EA033751
:1019A0003A434FF6FF7707EA05273A438F4FB8428D
:1019B0000ED08F4FB8420BD0B0F1804F08D08D4F72
:1019C000B84205D08C4FB84202D08C4FB84206D1F5
:1019D0004FF6DF77394046F01007394305E04FF600
:1019E0005F77394044F01007394302830184F0BD2A
:1019F000028B4FF6F3731A400283028B0A43028371
:101A00007047F0B50C46154600220021068C4FF6B3
:101A1000FE773E400684028B018C4FF60C763240F6
:101A20007E1C06EA03162E433243704EB0420ED09F
:101A30006F4EB0420BD0B0F1804F08D06D4EB04227
:101A400005D06D4EB04202D06C4EB04206D14FF67A
:101A5000FD76314044F00106314305E04FF6F5765E
:101A6000314044F00106314302830184F0BD70B57A
:101A700005460C465D4885420ED05D4885420BD038
:101A8000B5F1804F08D05B48854205D05A48854261
:101A900002D05A48854200D100E000BF208850B9EA
:101AA0002389A28861882846FFF7ABFFE188284692
:101AB000FFF79EFF25E0208804280AD12389A28809
:101AC00061882846FFF753FFE1882846FFF742FF69
:101AD00017E0208808280AD12389A288618828462F
:101AE000FFF7FBFEE1882846FFF7EEFE09E02389B9
:101AF000A28861882846FFF7A6FEE1882846FFF7FE
:101B000095FE70BD2DE9F04105460C4600260127E3
:101B1000608808B9022600E00026A088012801D1CB
:101B2000022700E001272088A0B92389A2886188C4
:101B30002846FFF766FFE1882846FFF759FF23890B
:101B40003A4631462846FFF712FFE1882846FFF75C
:101B500001FF13E02389A28861882846FFF707FF69
:101B6000E1882846FFF7F6FE23893A4631462846A3
:101B7000FFF747FFE1882846FFF73AFFBDE8F0810D
:101B80000A884B881A438B881A43CB881A430B89DF
:101B90001A434B891A438B891A43A0F84420704793
:101BA0004FF6FF71818000210180C1804180017268
:101BB00070470021018041808180C1800181418185
:101BC0008181C18170470021018041800121818094
:101BD0000021C18001817047002101804180818006
:101BE000C18001814181818170470000002C01404A
:101BF000003401400004004000080040000C004098
:101C000021B1028842F00102028004E002884FF60E
:101C1000FE731A400280704731B1B0F8442042F49C
:101C20000042A0F8442005E0B0F84420C2F30E02C0
:101C3000A0F8442070471AB183890B43838102E0E6
:101C400083898B43838170478182704741EA020315
:101C5000A0F8483070471AB183890B43838102E0B2
:101C600083898B438381704701894FF6F872114055
:101C7000018170470A46002101894FF68F73194090
:101C800011430181704730B504460D462946204670
:101C9000FFF7F0FF208940F00700208130BD2DE9DB
:101CA000F04104460D4616461F46602D06D13B46C0
:101CB000012231462046FFF75AFE05E03B4601224D
:101CC00031462046FFF79DFE29462046FFF7D2FF0A
:101CD000208940F007002081BDE8F08130B50C4636
:101CE00000210189C9B24FF6FF7505EA03251543A6
:101CF00025432943018130BD2DE9F04105460E46BB
:101D000017469846002443463A4631462846FFF790
:101D1000E5FF2C894FF6F870044044F007044FF6B5
:101D20008F70044044F070042C81BDE8F081F0B560
:101D300004460D4616461F463B4632462946204677
:101D4000FFF7CCFF208940F480402081F0BD018561
:101D5000828270470A46002101884FF68F7319402E
:101D6000114301807047F0B50C4615461E46002110
:101D7000002200230189028B038C4FF6F87739404B
:101D800021434FF6FC473A4040F201173A434FF6E1
:101D9000DD773B404FF6FF7707EA06172F433B43BB
:101DA000018102830384F0BD0A460021018B4FF6B6
:101DB0008F7319401143018370470A460021018B3C
:101DC00048F6FF7319404FF6FF7303EA02231943E5
:101DD000018370470A460021818B4FF68F731940AB
:101DE0001143818370470A460021818B48F6FF73B7
:101DF00019404FF6FF7303EA0223194381837047AA
:101E000021B1028842F08002028004E002884FF68D
:101E10007F731A400280704721B1828842F0040229
:101E2000828004E082884FF6FB731A4082807047FC
:101E300021B1828842F00802828004E082884FF655
:101E4000F7731A408280704721B1828842F0010204
:101E5000828004E082884FF6FE731A4082807047C9
:101E60000A460021018B4FF6F77319401143018395
:101E700070470A460021018B4FF2FF7319404FF65D
:101E8000FF7303EA02231943018370470A460021C6
:101E9000818B4FF6F77319401143818370470A46CF
:101EA0000021818B4FF2FF7319404FF6FF7303EA55
:101EB00002231943818370470A460021018B4FF6A4
:101EC000FB7319401143018370470A460021018BBF
:101ED0004FF6FF3319404FF6FF7303EA022319430D
:101EE000018370470A460021818B4FF6FB7319402E
:101EF0001143818370470A460021818B4FF6FF33DF
:101F000019404FF6FF7303EA022319438183704798
:101F10000A460021018B4FF67F731940114301835C
:101F200070470A460021018BC1F30E014FF6FF7383
:101F300003EA02231943018370470A460021818B7B
:101F40004FF67F7319401143818370470A46002181
:101F5000818BC1F30E014FF6FF7303EA022319438D
:101F6000818370470A460021018C4FF6FD731940AA
:101F70001143018470470A460021018C4FF6F77324
:101F800019401143018470470A460021018C4FF625
:101F9000DF7319404FF6FF7303EA021319430184FC
:101FA00070470A460021018C4FF67F7319404FF6A7
:101FB000FF7303EA02131943018470470A460021A4
:101FC000018C4FF6FF5319404FF6FF7303EA0223CB
:101FD0001943018470470A460021018C4FF2FF73B8
:101FE00019404FF6FF7303EA022319430184704737
:101FF0000A460021018C4DF6FF7319404FF6FF731E
:1020000003EA023319430184704730B500230124E9
:102010008C40A3B2048C9C430484048C02FA01F526
:10202000ADB22C43048430BD30B5002304248C4071
:10203000A3B2048C9C430484048C02FA01F5ADB273
:102040002C43048430BD70B503460020002418469C
:10205000183001258D40ACB21D8CA5431D8409B1FB
:10206000082909D100EB6100056825F070050560BD
:102070000568154305600EE00D1FC5F34E052844A5
:10208000056825F4E045056005684FF6FF7606EA29
:1020900002263543056070BD21B1028842F002027C
:1020A000028004E002884FF6FD731A4002807047F8
:1020B00021B1028842F00402028004E002884FF657
:1020C000FB731A400280704721B1828842F080027F
:1020D000828004E082884FF67F731A4082807047C6
:1020E00002884FF6F7731A40028002880A43028082
:1020F000704782884FF68F731A40828082880A4325
:102100008280704702894FF6F8731A400281028973
:102110000A430281704702894FF67F731A40028199
:1021200002890A4302817047818470478185704724
:10213000818670470187704781877047A0F84010FB
:10214000704702884FF6FF431A40028002880A4314
:10215000028070470146888E70470146088F70479D
:102160000146888F70470146B1F84000704701462C
:10217000888C70470146088D704702460020138AFC
:102180000B400BB1012000E000207047CA430282DF
:10219000704730B50246002000230024158A05EA66
:1021A0000103958905EA010413B10CB1012000E097
:1021B000002030BDCA4302827047000008B50320EA
:1021C0008DF8000000208DF801008DF8020001203C
:1021D0008DF80300684605F014FF08BDF0B503460E
:1021E0000C461546642093FBF0F0C6B2642093FBC6
:1021F000F0F700FB1730C1B2132E02DD01F16400CD
:10220000C1B20846CF1701EB977701EBA707BAB227
:10221000072092FBF0F700FB172082B25719601ECF
:10222000DFF8D4C31CF80000384482B2CF1701EBAA
:102230009777BF10A1EB87071FB9032C01DA501E57
:1022400082B2072092FBF0F700FB1720C0B2F0BD6E
:102250000146CA1701EB92729210A1EB820292B969
:10226000642091FBF0F200FB121050B94FF4C870DB
:1022700091FBF0F200FB121008B90120704700201A
:10228000FCE70120FAE70020F8E770B500260024FB
:10229000002506F025FD0646D848B6FBF0F4D848E0
:1022A0000088A0423CD0D6490C8040F2B27510E0C4
:1022B0002846FFF7CDFF40B1B4F5B77F02D3A4F5B0
:1022C000B77404E0681C85B206E0A4F26D14681CC3
:1022D00085B2B4F5B67FEBD800BFCA48858000252B
:1022E00016E0C8498888FFF7B3FF30B1012D04D14B
:1022F0001D2C01D31D3C09E00CE0C348405DA04209
:1023000003D8C148405D241A00E003E0681C85B290
:102310001C2CE6D200BF681CBA498871601CC871C9
:10232000B648B6FBF0F100FB11644FF46160B4FBFA
:10233000F0F0B44908704FF46160B4FBF0F100FBB9
:1023400011403C21B0FBF1F0AE4948704FF46160A0
:10235000B4FBF0F100FB11403C21B0FBF1F201FBBA
:102360001200A84988700B46DA7999799888FFF7A6
:1023700035FFA4490872002070BD2DE9F05F0646C4
:102380000F4690469946DDE90AAB002440F2B27050
:10239000864203DB40F63300864202DD0120BDE8C1
:1023A000F09F40F2B2750AE02846FFF751FF10B1E6
:1023B0009648044401E096480444681C85B2B5423E
:1023C000F2DB781EC7B2002510E08F48405D40F276
:1023D000A321484304EBC0143046FFF739FF18B17E
:1023E000012D01D185480444681C85B2BD42ECDB57
:1023F000A8F1010040F2A321484304EBC014C9EB4B
:102400004910C0EB092004EB0014CAEB0A1004EBDE
:1024100080045C4401214FF0C05006F084F9012093
:1024200006F0EDFC204606F064FC06F095FC00206A
:10243000B5E71CB5002401214FF0C05006F073F938
:10244000012006F0DCFC042006F0FDFB45F2500103
:10245000884240D006F0C2FB012006F0C4F804E038
:10246000601CC4B20A2005F076FB412006F023F878
:1024700008B9FA2CF4DBFA2C01DB01201CBD4FF467
:10248000807006F0CCF8012006F0CFF806F064FC6E
:1024900006F06BFC0121084606F002FC06F05CFC2D
:1024A00006F00BFC47F6FF7006F030FC06F054FC1B
:1024B000282036210F230A22CDE90010082140F2FE
:1024C000E470FFF75AFF06F001FC45F250010420CA
:1024D00006F0ADFB07E006F048FC0121084606F0D7
:1024E000DFFB06F039FCFFF769FEFFF7CEFE0020A8
:1024F000C4E70EB5012006F05DFC08B1FFF7C5FE8C
:10250000022006F057FCA0B1022006F063FCFFF7A2
:10251000BCFE3C4880783B4949783A4A1278CDE97C
:10252000002102903748C3798279818839A006F06A
:10253000C3FC052006F04EFC06F00EFC0EBD2DE996
:10254000F05F06460F4690469946DDE90AAB002447
:1025500040F2B270864203DB40F63300864202DD71
:102560000120BDE8F09F40F2B2750AE02846FFF76F
:102570006FFE10B12548044401E025480444681C5E
:1025800085B2B542F2DB781EC7B2002510E01E48C6
:10259000405D40F2A321484304EBC0143046FFF7EE
:1025A00057FE18B1012D01D114480444681C85B2AE
:1025B000BD42ECDBA8F1010040F2A321484304EB4B
:1025C000C014C9EB4910C0EB092004EB0014CAEB9E
:1025D0000A1004EB80045C4401214FF0C05006F067
:1025E000A2F8012006F00BFC204606F09DFB06F049
:1025F000B3FB0020B5E7000020B4000880510100C3
:102600001A000020400400202CB400080085E201DC
:102610008033E101416C61726D2054696D653A252A
:10262000642D25642D25642025643A25643A2564AB
:102630000A00000010B5044614B1012C0AD104E0D0
:102640000021EF2000F04CFC04E00121EF2000F01D
:1026500047FC00BF00BF10BD10B50A2400F0B0FC5D
:10266000052005F078FA00F0ABFC052005F073FAC0
:102670000020FFF7DFFF002000F04FFC0446202C75
:1026800001D0002010BD0120FCE770B500F0A1FCD6
:10269000FFF7E2FF05460DB9002070BD0020FFF7EF
:1026A000C9FF00240AE0FA4A02EB44025178F84AD2
:1026B00012F8140000F014FC601CC4B2332CF2D3E6
:1026C0000020FFF7B7FF0120E7E71CB51F20F14905
:1026D00008804FF6FF704FF496731A46AA210090B7
:1026E0001E2004F02CFFECA010210B46C822CDE9DF
:1026F0000010AA211E2005F0BDF9EDA010210B4607
:10270000C822CDE90010BE211E2005F0B3F91CBD82
:102710002DE9FE43002002908046FFF78BFF002446
:102720000AE0E94A02EB44025178E74A12F8140041
:1027300000F0D6FB601CC4B21E2CF2D30020FFF7C1
:1027400079FF00241F20D34908804FF6FF704FF413
:1027500096731A46AA2100901E2004F0F0FEDBA01A
:1027600010210B46C822CDE90010B4211E2005F02F
:1027700081F9CBA010210B46C822CDE90010D2214F
:102780001E2005F077F94FF47840C2490880E7E051
:102790000020FDF7F5FE0646032E08D1002141205A
:1027A00000F09EFB0021422000F09AFBD9E002AA33
:1027B0000221432000F0D3FB0546002D70D19DF887
:1027C00008009DF8091040EA0127002F68D0102F5B
:1027D00053D008DC012F10D0022F1ED0042F2CD094
:1027E000082F71D139E0202F5BD0402F6FD0802F80
:1027F0007DD0B7F5807FF4D189E0BAA018211023ED
:10280000C822CDE90010FA216E2005F033F9B9A0F5
:1028100006F052FB4FF001088CE0B8A018211023FD
:10282000C822CDE90010FA21642005F023F9B7A0F1
:1028300006F042FB4FF001087CE0B6A018211023FF
:10284000C822CDE90010FA21642005F013F9B5A0E3
:1028500006F032FB4FF001086CE0B4A01821102301
:10286000C822CDE90010FA21642005F003F9B3A0D5
:1028700006F022FB4FF001085CE0B2A01821102303
:10288000C822CDE90010FA21502005F0F3F8B1A0DC
:1028900006F012FB0020B24908604FF0010849E041
:1028A0005BE0B0A018211023C822CDE90010FA2166
:1028B000502005F0DFF8AFA006F0FEFA4FF0010857
:1028C0000120A749086035E031E000E00FE0ACA04E
:1028D00018211023C822CDE90010FA21462005F066
:1028E000C9F8ABA006F0E8FA4FF0010822E0ABA06F
:1028F00018211023C822CDE90010FA21322005F05A
:10290000B9F8AAA006F0D8FA4FF0010812E0ABA07F
:1029100018211023C822CDE90010FA21642005F007
:10292000A9F8AAA006F0C8FA4FF0010802E04FF09B
:10293000000800BF00BFB8F1000F0ED0C82005F09E
:102940000AF9A4A018211023C822CDE90010FA2109
:10295000282005F08FF84FF00008322005F0FBF832
:1029600016E700BFBDE8FE83FEB5002002900026FA
:102970000027FFF75FFE00240AE09D4A02EB4402B5
:1029800051789B4A12F8140000F0AAFA601CC4B2F5
:10299000232CF2D30020FFF74DFE00241F203D49D9
:1029A00008804FF6FF704FF496731A46AA210090E4
:1029B0001E2004F0C4FD45A010210B46C822CDE91D
:1029C0000010B4211E2005F055F88AA010210B46F6
:1029D000C822CDE90010D2211E2005F04BF887A0B7
:1029E00010210B46C822CDE90010F0211E2005F071
:1029F00041F885A010210B46C822CDE90010F02136
:102A0000A02005F037F84FF47840224908803DE0D7
:102A10000020FDF7B5FD0546032D00D10CE1B020E7
:102A200000F07BFA0646B12000F077FA8DF8080036
:102A3000B22000F072FA8DF809009DF808009DF8A8
:102A4000091001F00F0140EA01270020182103239B
:102A50003246CDE900104FF48771322004F09CFF1C
:102A60000020182103233A46CDE900104FF4877166
:102A7000982004F091FF314665A006F01DFA394612
:102A800069A006F019FA642005F065F8C0E70000B7
:102A900038B400081C0000204B4559313A20202052
:102AA0004765737475726520746573740000000067
:102AB0004B4559303A2020205073207465737420A0
:102AC0002020202000000000E4B400084B45595F9E
:102AD00055503A2045786974207468652074657390
:102AE000740000005550202020202020202020208D
:102AF0000000000055700D0A00000000446F776E62
:102B0000202020202020202000000000446F776E2D
:102B10000D0A00004C656674202020202020202013
:102B2000000000004C6566740D0A00005269676879
:102B300074202020202020200000000052696768B7
:102B4000740D0A00466F7277617264202020202085
:102B500000000000466F72776172640D0A00000089
:102B6000948121424261636B77617264202020204E
:102B7000000000004261636B776172640D0A00001F
:102B8000436C6F636B776973652020200000000041
:102B9000436C6F636B776973650D0A00416E7469EE
:102BA000436C6F636B77697365000000416E7469F5
:102BB000436C6F636B776973650D0A0057617665C7
:102BC0002020202020202020200000005761766552
:102BD0000D0A00002020202020202020202020205E
:102BE0002020202020202020202020200000000065
:102BF0009EB4000850732074657374004272696754
:102C000068746E657373000053697A650000000094
:102C10006F626A5F6272696768746E6573733A2087
:102C200025640D0A000000006F626A5F73697A65AF
:102C30003A2025640D0A000000BFFEBD0025FFF705
:102C400044FD19E00020FDF79BFC044664B1012C13
:102C500004D0022C05D1FFF75BFD02E0FFF784FEF4
:102C600000BF00BFFFF731FD322004F074FF681C85
:102C7000C5B2052D00D10025E4E710B50020FFF70F
:102C8000D9FC00240AE0084A02EB44025178064AC3
:102C900012F8140000F024F9601CC4B21E2CF2D308
:102CA0000020FFF7C7FC10BDE4B4000810B5D648FB
:102CB000006820F47040D44908600846006840F479
:102CC000405008600120D1490860D149C1F8A801ED
:102CD000042004F01CFF0020CC490860042004F00C
:102CE00016FF0020CA49C1F8A80110BD10B5C6489A
:102CF000006820F47040C44908600846006840F449
:102D0000405008600020C149091F0860C049C1F84F
:102D1000AC01042004F0FBFE0120BC49091F08603F
:102D2000BB49C1F8AC01042004F0F1FE10BD10B5A0
:102D30000024B548006820F47040B3490860084694
:102D4000006840F4004008600120B049086003209A
:102D500004F0DDFE0120AE49C1F8A801032004F013
:102D6000D6FE07E0601CC4B2FA2C03DDFFF7BEFFFD
:102D7000012010BDA548803800680028F2D1A34981
:102D8000091F086000BFF4E710B500209F49091F24
:102D900008609D48006820F470409B490860084620
:102DA000006840F44050086000209949C1F8AC0127
:102DB000032004F0ACFE01209449091F08600320A1
:102DC00004F0A5FE00209249C1F8A80110BD10B57D
:102DD00000208E49091F08608B48006820F470406D
:102DE000894908600846006840F4405008600120A6
:102DF0008749C1F8AC01022004F089FE0120834913
:102E0000091F0860022004F082FE00208049C1F8FA
:102E1000A80110BD70B504467B48006820F47040DE
:102E2000794908600846006840F440500860002076
:102E30007649091F086000251DE0E00918B101204E
:102E40007249086002E00020704908606006040EC4
:102E5000052004F05CFE01206C49091F0860052074
:102E600004F055FE00206A49C1F8A801052004F0CD
:102E70004EFE681CC5B2082DDFDB70BD70B505467F
:102E800000246148006820F470405F4908600846EB
:102E9000006840F400400860002617E000205B490D
:102EA000091F0860042004F032FE01205849C1F8CF
:102EB000A8016006040E55488038006808B1601CFF
:102EC000C4B2042004F023FE701CC6B2082EE5DB59
:102ED00015B9FFF77CFF01E0FFF756FF204670BDF4
:102EE00070B505460C46FFF7E1FEE620FFF792FFBE
:102EF000FFF71DFF18B1FFF7F9FE012070BD28464E
:102F0000FFF788FFFFF713FF2046FFF783FFFFF768
:102F10000EFFFFF7EBFE0020F0E770B50446FFF769
:102F2000C5FEE620FFF776FFFFF701FF18B1FFF7B8
:102F3000DDFE002070BD2046FFF76CFFFFF7F7FEB7
:102F4000FFF7B4FEE720FFF765FFFFF7F0FE002074
:102F5000FFF794FF0546FFF7C9FE2846EAE770B57C
:102F600006460C461546FFF7A1FEE620FFF752FF86
:102F7000FFF7DDFE18B1FFF7B9FE012070BD304646
:102F8000FFF748FFFFF7D3FEFFF790FEE720FFF7BC
:102F900041FFFFF7CCFE0DE0012C04D10020FFF72C
:102FA0006DFF287003E00120FFF768FF28706D1C9B
:102FB000601E84B2002CEFD1FFF798FE0020DDE701
:102FC00010B5FFF773FEE620FFF724FFFFF78EFE34
:102FD00010BD1048806940F008000E4988610A4819
:102FE000006820F47F40084908600846006840F403
:102FF0004C50086004480830006840F440600249C2
:103000000831086070470000040C0140AC81214287
:103010000080214200100240F74908807047F649BD
:10302000891C0880704708B5F348801C0088009010
:10303000BDF8000008BDF04A1080921C1180704756
:1030400010B504462046FFF7E7FF052004F05FFDBA
:10305000FFF7E9FF10BDE9480089E749088070479C
:10306000E549891C0880704730B5014601F01F040E
:10307000C1F34513CA0AE50205EB43151544A8B28E
:1030800030BD00BF011EA0F10102D0B2FAD17047DD
:1030900010B503460C46D948808849F24131884230
:1030A00005D0D648808845F21031884214D1D349E2
:1030B0004889FFF7B1FF1812FFF7B1FFD8B2FFF749
:1030C000AEFFCE498889FFF7A7FF2012FFF7A7FFC1
:1030D000E0B2FFF7A4FFABE0C848808846F60401E1
:1030E00088421DD1C5488079012804D1C348008891
:1030F000401EC01A83B2C1494889FFF78DFF1812DC
:10310000FFF78DFFD8B2FFF78AFFBC498889FFF728
:1031100083FF2012FFF783FFE0B2FFF780FF87E015
:10312000B648808841F66311884247D1B348807918
:10313000A8B9B2480088401EC01A83B2AF49488976
:10314000FFF76AFF0020FFF76AFF0020FFF767FF25
:103150001812FFF764FFD8B2FFF761FF16E0A74926
:103160004889FFF759FF1812FFF759FFD8B2FFF748
:1031700056FFA2490988491EC1F30F20FFF74FFFF0
:103180009E490978491EC8B2FFF749FF9B498889C3
:10319000FFF742FF2012FFF742FFE0B2FFF73FFFC9
:1031A00096494988491EC1F30F20FFF738FF93491C
:1031B0008978491EC8B2FFF732FF39E08F4880880E
:1031C00045F21051884220D18C494889FFF724FFED
:1031D0001812FFF724FF89494989491C88B2FFF773
:1031E0001BFFD8B2FFF71BFF84498889FFF714FF44
:1031F0002012FFF714FF81498989491C88B2FFF723
:103200000BFFE0B2FFF70BFF12E07C48807901284A
:1032100004D17A480088401EC01A83B27749488991
:103220001946FFF708FF754988892146FFF703FF14
:1032300010BD2DE9F04105460E4600240027A046AA
:103240006E480088A84203DD6C484088B04202DC2A
:103250000020BDE8F08131462846FFF719FF674896
:10326000808849F24131884211D06448808846F60E
:10327000040188420BD06148808845F210318842B1
:1032800005D05E48808841F66311884203D12E2024
:10329000FFF7C2FE0DE05948808845F21051884280
:1032A00004D14FF43850FFF7B7FE02E02220FFF7B9
:1032B000B3FE5248808849F22031884202D1022070
:1032C000FFF7DFFEFFF7AFFE04464C48808841F66B
:1032D0006311884201D12046BBE70220FFF7D1FEEF
:1032E000FFF7A1FE04464548808849F241318842F3
:1032F0000BD04248808845F21031884205D03F48C3
:10330000808845F2105188420AD10220FFF7B9FEA9
:10331000FFF789FE8046E7B24FF6FF7000EA072705
:103320003648808849F22531884216D03348808853
:1033300044F23551884210D030488088091F8842B5
:103340000BD02E4880884BF20551884205D02B487F
:1033500080884CF20551884201D1204679E7274800
:10336000808849F2413188420BD02448808845F258
:103370001031884205D02148808845F2105188429A
:1033800007D1E012C002B91240EA411040EAE82039
:103390005FE72046FFF768FE5BE700B517488088C7
:1033A00049F24131884211D01448808846F6040120
:1033B00088420BD01148808845F21031884205D0F0
:1033C0000E48808841F66311884203D12920FFF717
:1033D00023FE0FE00948808845F21051884204D14D
:1033E0004FF42450FFF718FE04E040F27311072059
:1033F000FFF721FE00BD0000FE07006C4A0400201C
:1034000000B5FD48808849F24131884211D0FA4820
:10341000808846F6040188420BD0F748808845F240
:103420001031884205D0F448808841F66311884203
:1034300003D12820FFF7F0FD0EE0EF48808845F229
:103440001051884204D14FF42050FFF7E5FD03E00E
:1034500000210720FFF7EFFD00BD70B504460023F3
:103460000026E548807901280BD1E348808846F69C
:103470000401884205D0E048808841F66311884203
:1034800008D1DD488079F0B9DB48808841F66311C6
:10349000884218D1082C15D2DFE804F00406080A87
:1034A0000C0E101206240DE007240BE0042409E0A2
:1034B000052407E0012405E0002403E0032401E0E3
:1034C000022400BF00BFCC48808849F241318842C5
:1034D00017D0C948808846F60401884211D0C648F2
:1034E000808845F2103188420BD0C348808845F26D
:1034F0001051884205D0C048808841F66311884247
:103500007ED1082C1CD2DFE804F00406090C0F124F
:10351000151800BF14E043F0800311E043F04003AE
:103520000EE043F0C0030BE043F0200308E043F05B
:10353000600305E043F0A00302E043F0E00300BFB6
:1035400000BFAD48808845F21051884202D14FF447
:10355000585600E03626A848808845F21031884247
:103560000DD0A548808845F21051884207D0A24866
:10357000808841F66311884201D043F008039E48D9
:10358000808846F60401884201D143F002031946BF
:103590003046FFF750FD9848808841F66311884215
:1035A0001DD003F0200068B19348008892494988F3
:1035B000884214DA9048058840888F490880084678
:1035C00045800CE08C4800888B494988884206DD9C
:1035D000894805884088884908800846458086488B
:1035E000808845F21051884254D183494889FFF7B9
:1035F00013FD0020FFF713FD7F494989491C00E0B6
:1036000077E088B2FFF708FD0020FFF708FD7A4950
:103610004989891C88B2FFF7FFFC77490988491E50
:10362000C1F30F20FFF7FBFC73494989C91C88B21D
:10363000FFF7F2FC70490978491EC8B2FFF7EFFCAA
:103640006D498889FFF7E8FC0020FFF7E8FC6A492C
:103650008989491C88B2FFF7DFFC0020FFF7DFFCF7
:1036600065498989891C88B2FFF7D6FC6249498877
:10367000491EC1F30F20FFF7D2FC5F498989C91C9D
:1036800088B2FFF7C9FC5C498978491EC8B2FFF7C8
:10369000C6FC55E058494889FFF7BEFC0020FFF7FB
:1036A000BEFC0020FFF7BBFC53490988491EC1F34B
:1036B0000F20FFF7B4FC50490978491EC8B2FFF744
:1036C000AEFC4D498889FFF7A7FC0020FFF7A7FC57
:1036D0000020FFF7A4FC48494988491EC1F30F2088
:1036E000FFF79DFC44498978491EC8B2FFF797FC53
:1036F00026E0082C1CD2DFE804F004070A0D0F12A4
:10370000151843F0300313E043F0100310E043F0CA
:1037100020030DE000BF0BE043F0380308E043F066
:10372000280305E043F0180302E043F0080300BF5C
:1037300000BF032643F4805319463046FFF77BFC55
:1037400070BD30B504460D4629462046FFF7A0FC63
:10375000FFF781FC294800882949088030BD30B531
:1037600003460C4615462448808849F24131884278
:1037700005D02148808845F21031884214D11E4975
:103780004889FFF749FC1812FFF749FCD8B2FFF748
:1037900046FC19498889FFF73FFC2012FFF73FFCE0
:1037A000E0B2FFF73CFC93E01348808845F21051EB
:1037B000884227D110494889FFF72EFC1812FFF7DD
:1037C0002EFC0D494989491C88B2FFF725FCD8B267
:1037D000FFF725FC08498889FFF71EFC2012FFF738
:1037E0001EFC05498989491C88B2FFF715FCE0B227
:1037F000FFF715FC6CE000004A0400201C000020CC
:103800000008006CFC48808841F66311884228D18A
:10381000F948807920B9F8480088401EC01A83B260
:10382000F5494889FFF7F8FB1812FFF7F8FBD8B203
:10383000FFF7F5FB1812FFF7F2FBD8B2FFF7EFFB2B
:10384000ED498889FFF7E8FB2012FFF7E8FBE0B2BB
:10385000FFF7E5FB2012FFF7E2FBE0B2FFF7DFFB2B
:1038600036E0E548808846F6040188421DD1E248EA
:103870008079012804D1E0480088401EC01A83B234
:10388000DD494889FFF7C8FB1812FFF7C8FBD8B21B
:10389000FFF7C5FBD8498889FFF7BEFB2012FFF769
:1038A000BEFBE0B2FFF7BBFB12E0D34880790128F2
:1038B00004D1D1480088401EC01A83B2CE4948893D
:1038C0001946FFF7B8FBCC4988892146FFF7B3FBBF
:1038D000C9480089C9490880881C058030BD2DE988
:1038E000F0470446BE20FFF797FB0520FFF797FB44
:1038F000204605F074FC07464FF06632C04B05F0D9
:1039000081FC054605F03EFC1FFA80F94846FFF7AA
:1039100086FB0120FFF783FBFF20FFF780FB0020E1
:10392000FFF77DFB0020FFF77AFBBDE8F08710B5BD
:103930000446002C66D1B0498871F02008804FF40D
:10394000A07048800846808849F2413188420BD0F7
:10395000A948808846F60401884205D0A648808898
:1039600045F2103188421AD12C20A34908812A201F
:1039700048812B2088810846808846F604018842C9
:1039800005D09D48808845F21031884206D14FF419
:10399000A070994908804FF4F0704880A1E09648E3
:1039A000808845F21051884210D14FF4305092492E
:1039B00008814FF4285048814FF42C5088814FF4EF
:1039C000F07008804FF4487048808AE08A48808808
:1039D00041F6631188420DD12C20874908812B20A4
:1039E00048812A2088814FF4F07008804FF4487095
:1039F000488076E0222080490881202048812120CB
:103A000088816EE001207C4988714FF4A0700880A5
:103A1000F02048800846808849F24131884205D02C
:103A20007548808845F21031884207D12C207249B0
:103A300008812A2048812B2088813FE06E488088B9
:103A400046F60401884207D12C206B4908812B20BF
:103A500048812A20888131E06748808845F21051EA
:103A6000884210D14FF43050634908814FF42850F8
:103A700048814FF42C5088814FF4487008804FF4EF
:103A8000F07048801AE05C48808841F663118842F3
:103A90000DD12C20584908812A2048812B2088816B
:103AA0004FF4487008804FF4F070488006E0222000
:103AB0005149088121204881202088814E488088F2
:103AC00046F60401884205D04B48808845F2103103
:103AD000884206D14FF4F070474908804FF4A07037
:103AE00048800020FFF7B9FC10BD2DE9F04F86B0EB
:103AF00004460D469046994604EB0800401E86B2E7
:103B000005EB0900401E87B23B48808849F24131ED
:103B1000884215D03848808845F2103188420FD04D
:103B20003548808846F60401884209D032488079B9
:103B3000012826D13048808841F66311884220D17F
:103B40002D494889FFF768FA2012FFF768FAE0B2BA
:103B5000FFF765FA3012FFF762FAF0B2FFF75FFA8B
:103B600025498889FFF758FA2812FFF758FAE8B272
:103B7000FFF755FA3812FFF752FAF8B2FFF74FFA8B
:103B8000BEE01D48808841F6631188423AD11A4848
:103B90000088A0EB0800001B84B205EB0900401E62
:103BA0001FFA80F914494889FFF736FA2012FFF707
:103BB00036FAE0B2FFF733FA04EB0801491EC1F30D
:103BC0000F20FFF72CFA04EB0801491EC8B2FFF7DB
:103BD00026FA09498889FFF71FFA2812FFF71FFA0A
:103BE000E8B2FFF71CFA4FEA2920FFF718FA09F0AC
:103BF000FF00FFF714FA83E04A040020FE07006C80
:103C000066660440FE48808845F21051884244D1DF
:103C1000FB494889FFF700FA2012FFF700FAF8493C
:103C20004989491C88B2FFF7F7F9E0B2FFF7F7F9C5
:103C3000F3494989891C88B2FFF7EEF93012FFF782
:103C4000EEF9EF494989C91C88B2FFF7E5F9F0B2EE
:103C5000FFF7E5F9EA498889FFF7DEF92812FFF74F
:103C6000DEF9E7498989491C88B2FFF7D5F9E8B23E
:103C7000FFF7D5F9E2498989891C88B2FFF7CCF9A9
:103C80003812FFF7CCF9DE498989C91C88B2FFF7E1
:103C9000C3F9F8B2FFF7C3F932E0D94880790128B7
:103CA0000ED1AA46BB46D6480088801B401E80B273
:103CB0000190D3480088001B401E80B2009003E0B2
:103CC000A246B346019500975020059051200490DC
:103CD000522003905320029051460598FFF7ABF90C
:103CE00059460498FFF7A7F901990398FFF7A3F93C
:103CF00000990298FFF79FF929462046FFF7C8F977
:103D000006B0BDE8F08F70B504460026BC480588B3
:103D100040884543BA48808846F60401884216D157
:103D2000B7488079012812D10020B54988712A202E
:103D300048812B20888100210846FFF7A9F901203E
:103D4000AF4988712B2048812A20888103E0002117
:103D50000846FFF79DF9FFF77EF9002602E0A94823
:103D60000480761CAE42FAD370BD10B5A6484069F7
:103D700040F48070A44948610846806940F008001A
:103D800088610846806940F02000886108468069A3
:103D900040F0400088610846806940F48070886186
:103DA0009A48006820F00F009849086008460068AB
:103DB00040F003000860964800689649084094491E
:103DC0000860084600689449084391490860081F44
:103DD000006800F0FF20091F08600846006840F0F6
:103DE000BB1008608D48006800208C4908600846B8
:103DF000006840F0BB300860081F006820F0704089
:103E0000091F08600846006840F030400860844898
:103E1000406820F47020824948600846406840F4B9
:103E2000302048600846006820F00F00086008460F
:103E3000006840F00B00086000204FF020418861CE
:103E4000C861784908604FF02040806940F4805094
:103E50004FF0204188610846806940F480408861C5
:103E60000846806940F0100088610846C069C86152
:103E70000846C06940F00100C8610846C06940F4C6
:103E80007060C86167480068C1F81C016548006837
:103E9000C1F81C010846D0F81C0140F44070C1F87C
:103EA0001C010846806940F001008861322003F05F
:103EB00052FE0020FFF7C4F85149888008468088E8
:103EC000FF280ADB084680884FF6FF71884204D03D
:103ED0004B488088B0F5134F7ED1D320FFF79CF874
:103EE000FFF7A1F846498880FFF79DF8444988808C
:103EF000FFF799F842498880084680884FF6FF719D
:103F000001EA00203E498880FFF78DF83C49898806
:103F100008433B4988800846808849F241318842FD
:103F20005AD0BF20FFF778F8FFF77DF83449888032
:103F3000FFF779F832498880FFF775F830498880B3
:103F4000FFF771F82E498880084680884FF6FF7188
:103F500001EA00202A498880FFF765F82849898806
:103F60000843274988800846808846F6040188422D
:103F700032D0D420FFF750F8FFF755F82049888059
:103F8000FFF751F81E498880FFF74DF81C498880DB
:103F9000084680884FF6FF7101EA002018498880A2
:103FA000FFF741F816498988084315498880084673
:103FB000808845F2103188426BD04FF45A40FFF7A9
:103FC0002BF8FFF730F80E4988804FF45B40FFF77D
:103FD00023F8FFF728F800E05BE0094988800846ED
:103FE00080884FF6FF7101EA0020054988804FF470
:103FF0005C40FFF711F8FFF716F80149898813E0D4
:104000004A0400200008006C00100240000C01402F
:104010000414014000F0FF00BB0B00BB041801407A
:10402000002001401C0100A00843FE49888008468A
:104030008088B0F5004F02D145F210508880F948D1
:10404000808845F21051884223D0A120FEF7E4FF7A
:10405000FEF7E9FFF3498880FEF7E5FFF149888024
:10406000084680884FF6FF7101EA0020ED498880FC
:10407000FEF7D9FFEB4989880843EA49888008465A
:10408000808845F26171884203D141F66310E549A9
:104090008880E4488188E4A004F00EFFE14880882D
:1040A00049F2413188427CD1CF20FEF7B5FF002094
:1040B000FEF7B5FFC120FEF7B2FF3020FEF7AFFFDD
:1040C000ED20FEF7A9FF6420FEF7A9FF0320FEF70D
:1040D000A6FF1220FEF7A3FF8120FEF7A0FFE82035
:1040E000FEF79AFF8520FEF79AFF1020FEF797FF54
:1040F0007A20FEF794FFCB20FEF78EFF3920FEF7E3
:104100008EFF2C20FEF78BFF0020FEF788FF342067
:10411000FEF785FF0220FEF782FFF720FEF77CFF07
:104120002020FEF77CFFEA20FEF776FF0020FEF756
:1041300076FF0020FEF773FFC020FEF76DFF1B2007
:10414000FEF76DFFC120FEF767FF0120FEF767FF56
:10415000C520FEF761FF3020FEF761FF3020FEF73B
:104160005EFFC720FEF758FFB720FEF758FF362046
:10417000FEF752FF4820FEF752FF3A20FEF74CFFB1
:104180005520FEF74CFFB120FEF746FF0020FEF75A
:1041900046FF1A20FEF743FFB620FEF73DFF0A2038
:1041A00000E099E0FEF73BFFA220FEF738FFF22087
:1041B000FEF732FF0020FEF732FF2620FEF72CFF2D
:1041C0000120FEF72CFFE020FEF726FF0F20FEF770
:1041D00026FF2A20FEF723FF2820FEF720FF0820D5
:1041E000FEF71DFF0E20FEF71AFF0820FEF717FF4F
:1041F0005420FEF714FFA920FEF711FF4320FEF71D
:104200000EFF0A20FEF70BFF0F20FEF708FF00202D
:10421000FEF705FF0020FEF702FF0020FEF7FFFE7D
:104220000020FEF7FCFEE120FEF7F6FE0020FEF780
:10423000F6FE1520FEF7F3FE1720FEF7F0FE07202E
:10424000FEF7EDFE1120FEF7EAFE0620FEF7E7FE80
:104250002B20FEF7E4FE5620FEF7E1FE3C20FEF7A1
:10426000DEFE0520FEF7DBFE1020FEF7D8FE0F2055
:10427000FEF7D5FE3F20FEF7D2FE3F20FEF7CFFE31
:104280000F20FEF7CCFE2B20FEF7C6FE0020FEF727
:10429000C6FE0020FEF7C3FE0120FEF7C0FE3F2051
:1042A000FEF7BDFE2A20FEF7B7FE0020FEF7B7FEA0
:1042B0000020FEF7B4FE0020FEF7B1FEEF20FEF76F
:1042C000AEFE1120FEF7A8FE782003F044FC292062
:1042D000FEF7A2FE03F028B95248808846F6040192
:1042E00088427CD11120FEF797FE142003F033FCA6
:1042F000D020FEF791FE0720FEF791FE4220FEF748
:104300008EFE1D20FEF78BFED120FEF785FE0020DD
:10431000FEF785FE1A20FEF782FE0920FEF77FFEDB
:10432000D220FEF779FE0120FEF779FE2220FEF76B
:1043300076FEC020FEF770FE1020FEF770FE3B20D8
:10434000FEF76DFE0020FEF76AFE0220FEF767FE14
:104350001120FEF764FEC520FEF75EFE0320FEF787
:104360005EFEC820FEF758FE0020FEF758FE25200E
:10437000FEF755FE2120FEF752FE0520FEF74FFE08
:104380000020FEF74CFE0A20FEF749FE6520FEF7EE
:1043900046FE2520FEF743FE7720FEF740FE502024
:1043A000FEF73DFE0F20FEF73AFE0020FEF737FE37
:1043B000F820FEF731FE0120FEF731FEFE20FEF769
:1043C0002BFE0020FEF72BFE0220FEF728FE202009
:1043D000FEF722FE3620FEF71FFE082000E037E041
:1043E000FEF71DFE3A20FEF717FE5520FEF717FEDA
:1043F0002B20FEF711FE0020FEF711FE0020FEF735
:104400000EFE0120FEF70BFE3F20FEF708FE2A20DD
:10441000FEF702FE0020FEF702FE0020FEF7FFFD81
:10442000012009E04A040020204C43442049443A3A
:1044300025780D0A00000000FEF7F1FDDF20FEF7F1
:10444000EEFD782003F087FB2920FEF7E5FD41E72C
:10445000FE48808845F21031884240F07C87ED208C
:10446000FEF7DAFD0120FEF7DAFDFE20FEF7D7FDAC
:10447000EE20FEF7D1FDDE20FEF7D1FD2120FEF774
:10448000CEFDF120FEF7C8FD0120FEF7C8FDDF20BC
:10449000FEF7C2FD1020FEF7C2FDC420FEF7BCFDF2
:1044A0008F20FEF7BCFDC620FEF7B6FD0020FEF70C
:1044B000B6FDE220FEF7B3FDE220FEF7B0FDE220FC
:1044C000FEF7ADFDBF20FEF7A7FDAA20FEF7A7FD72
:1044D000B020FEF7A1FD0D20FEF7A1FD0020FEF7A4
:1044E0009EFD0D20FEF79BFD0020FEF798FD11209C
:1044F000FEF795FD0020FEF792FD1920FEF78FFDD7
:104500000020FEF78CFD2120FEF789FD0020FEF73C
:1045100086FD2D20FEF783FD0020FEF780FD3D2067
:10452000FEF77DFD0020FEF77AFD5D20FEF777FDAA
:104530000020FEF774FD5D20FEF771FD0020FEF700
:104540006EFDB120FEF768FD8020FEF768FD0020BB
:10455000FEF765FD8B20FEF762FD0020FEF75FFD94
:104560009620FEF75CFD0020FEF759FDB220FEF715
:1045700053FD0020FEF753FD0020FEF750FD022002
:10458000FEF74DFD0020FEF74AFD0320FEF747FD34
:104590000020FEF744FDB320FEF73EFD0020FEF7AD
:1045A0003EFD0020FEF73BFD0020FEF738FD002019
:1045B000FEF735FD0020FEF732FD0020FEF72FFD4F
:1045C0000020FEF72CFD0020FEF729FD0020FEF75D
:1045D00026FD0020FEF723FD0020FEF720FD002031
:1045E000FEF71DFD0020FEF71AFD0020FEF717FD67
:1045F0000020FEF714FD0020FEF711FD0020FEF75D
:104600000EFD0020FEF70BFD0020FEF708FD002048
:10461000FEF705FD0020FEF702FD0020FEF7FFFC7F
:104620000020FEF7FCFC0020FEF7F9FCB420FEF7AA
:10463000F3FC8B20FEF7F3FC0020FEF7F0FC962045
:10464000FEF7EDFC0020FEF7EAFCA120FEF7E7FCF8
:104650000020FEF7E4FCB520FEF7DEFC0220FEF7AA
:10466000DEFC0020FEF7DBFC0320FEF7D8FC002078
:10467000FEF7D5FC0420FEF7D2FC0020FEF7CFFCAD
:10468000B620FEF7C9FC0020FEF7C9FC0020FEF7AB
:10469000C6FCB720FEF7C0FC0020FEF7C0FC0020DF
:1046A000FEF7BDFC3F20FEF7BAFC0020FEF7B7FC8A
:1046B0005E20FEF7B4FC0020FEF7B1FC6420FEF79C
:1046C000AEFC0020FEF7ABFC8C20FEF7A8FC00201F
:1046D000FEF7A5FCAC20FEF7A2FC0020FEF79FFC35
:1046E000DC20FEF79CFC0020FEF799FC7020FEF712
:1046F00096FC0020FEF793FC9020FEF790FC002033
:10470000FEF78DFCEB20FEF78AFC0020FEF787FC0D
:10471000DC20FEF784FC0020FEF781FCB820FEF7C9
:104720007BFC0020FEF77BFC0020FEF778FC0020DD
:10473000FEF775FC0020FEF772FC0020FEF76FFC10
:104740000020FEF76CFC0020FEF769FC0020FEF75D
:1047500066FCBA20FEF760FC2420FEF760FC002017
:10476000FEF75DFC0020FEF75AFC0020FEF757FC28
:10477000C120FEF751FC2020FEF751FC0020FEF77F
:104780004EFC5420FEF74BFC0020FEF748FCFF20B7
:10479000FEF745FC0020FEF742FCC220FEF73CFC81
:1047A0000A20FEF73CFC0020FEF739FC0420FEF74F
:1047B00036FC0020FEF733FCC320FEF72DFC3C2026
:1047C000FEF72DFC0020FEF72AFC3A20FEF727FC1E
:1047D0000020FEF724FC3920FEF721FC0020FEF724
:1047E0001EFC3720FEF71BFC0020FEF718FC3C20C7
:1047F000FEF715FC0020FEF712FC3620FEF70FFC3A
:104800000020FEF70CFC3220FEF709FC0020FEF72A
:1048100006FC2F20FEF703FC0020FEF700FC2C20F6
:10482000FEF7FDFB0020FEF7FAFB2920FEF7F7FB61
:104830000020FEF7F4FB2620FEF7F1FB0020FEF738
:10484000EEFB2420FEF7EBFB002001E04A040020F1
:10485000FEF7E5FB2420FEF7E2FB0020FEF7DFFB7E
:104860002320FEF7DCFB0020FEF7D9FB3C20FEF7FF
:10487000D6FB0020FEF7D3FB3620FEF7D0FB00204E
:10488000FEF7CDFB3220FEF7CAFB0020FEF7C7FB88
:104890002F20FEF7C4FB0020FEF7C1FB2C20FEF703
:1048A000BEFB0020FEF7BBFB2920FEF7B8FB002073
:1048B000FEF7B5FB2620FEF7B2FB0020FEF7AFFBAC
:1048C0002420FEF7ACFB0020FEF7A9FB2420FEF716
:1048D000A6FB0020FEF7A3FB2320FEF7A0FB002091
:1048E000FEF79DFBC420FEF797FB6220FEF797FBC7
:1048F0000020FEF794FB0520FEF791FB0020FEF759
:104900008EFB8420FEF78BFB0020FEF788FBF02057
:10491000FEF785FB0020FEF782FB1820FEF77FFBE9
:104920000020FEF77CFBA420FEF779FB0020FEF7B9
:1049300076FB1820FEF773FB0020FEF770FB50207B
:10494000FEF76DFB0020FEF76AFB0C20FEF767FB0D
:104950000020FEF764FB1720FEF761FB0020FEF746
:104960005EFB9520FEF75BFB0020FEF758FBF32073
:10497000FEF755FB0020FEF752FBE620FEF74FFB4B
:104980000020FEF74CFBC520FEF746FB3220FEF769
:1049900046FB0020FEF743FB4420FEF740FB0020CF
:1049A000FEF73DFB6520FEF73AFB0020FEF737FBE4
:1049B0007620FEF734FB0020FEF731FB8820FEF75F
:1049C0002EFB0020FEF72BFBC620FEF725FB202048
:1049D000FEF725FB0020FEF722FB1720FEF71FFB4A
:1049E0000020FEF71CFB0120FEF719FB0020FEF75C
:1049F00016FBC720FEF710FB0020FEF710FB00207F
:104A0000FEF70DFB0020FEF70AFB0020FEF707FB78
:104A1000C820FEF701FB0020FEF701FB0020FEF797
:104A2000FEFA0020FEF7FBFA0020FEF7F8FAC92094
:104A3000FEF7F2FA0020FEF7F2FA0020FEF7EFFA96
:104A40000020FEF7ECFA0020FEF7E9FA0020FEF75E
:104A5000E6FA0020FEF7E3FA0020FEF7E0FA002075
:104A6000FEF7DDFA0020FEF7DAFA0020FEF7D7FAAB
:104A70000020FEF7D4FA0020FEF7D1FA0020FEF75E
:104A8000CEFA0020FEF7CBFA0020FEF7C8FA00208D
:104A9000FEF7C5FAE020FEF7BFFA1620FEF7BFFAD0
:104AA0000020FEF7BCFA1C20FEF7B9FA0020FEF742
:104AB000B6FA2120FEF7B3FA0020FEF7B0FA36204E
:104AC000FEF7ADFA0020FEF7AAFA4620FEF7A7FA95
:104AD0000020FEF7A4FA5220FEF7A1FA0020FEF70C
:104AE0009EFA6420FEF79BFA0020FEF798FA7A20DF
:104AF000FEF795FA0020FEF792FA8B20FEF78FFA68
:104B00000020FEF78CFA9920FEF789FA0020FEF7C4
:104B100086FAA820FEF783FA0020FEF780FAB92073
:104B2000FEF77DFA0020FEF77AFAC420FEF777FA46
:104B30000020FEF774FACA20FEF771FA0020FEF793
:104B40006EFAD220FEF76BFA0020FEF768FAD92041
:104B5000FEF765FA0020FEF762FAE020FEF75FFA42
:104B60000020FEF75CFAF320FEF759FA0020FEF76A
:104B700056FAE120FEF750FA1620FEF750FA002010
:104B8000FEF74DFA1C20FEF74AFA0020FEF747FA1E
:104B90002220FEF744FA0020FEF741FA3620FEF705
:104BA0003EFA0020FEF73BFA4520FEF738FA0020D7
:104BB000FEF735FA5220FEF732FA0020FEF72FFA00
:104BC0006420FEF72CFA0020FEF729FA7A20FEF77F
:104BD00026FA0020FEF723FA8B20FEF720FA0020A9
:104BE000FEF71DFA9920FEF71AFA0020FEF717FAD1
:104BF000A820FEF714FA0020FEF711FAB920FEF7FC
:104C00000EFA0020FEF70BFAC420FEF708FA002087
:104C1000FEF705FACA20FEF702FA0020FEF7FFF9B8
:104C2000D220FEF7FCF90020FEF7F9F9D820FEF7B4
:104C3000F6F90020FEF7F3F9E020FEF7F0F9002086
:104C4000FEF7EDF9F320FEF7EAF90020FEF7E7F9A9
:104C5000E220FEF7E1F90520FEF7E1F90020FEF77A
:104C6000DEF90B20FEF7DBF90020FEF7D8F91B2058
:104C7000FEF7D5F90020FEF7D2F93420FEF7CFF980
:104C80000020FEF7CCF94420FEF7C9F90020FEF71A
:104C9000C6F94F20FEF7C3F90020FEF7C0F96120E6
:104CA000FEF7BDF90020FEF7BAF97920FEF7B7F953
:104CB0000020FEF7B4F98820FEF7B1F90020FEF7D6
:104CC000AEF99720FEF7ABF90020FEF7A8F9A62071
:104CD000FEF7A5F90020FEF7A2F9B720FEF79FF92D
:104CE0000020FEF79CF9C220FEF799F90020FEF79C
:104CF00096F9C720FEF793F90020FEF790F9D1202E
:104D0000FEF78DF90020FEF78AF9D620FEF787F925
:104D10000020FEF784F9DD20FEF781F90020FEF780
:104D20007EF9F320FEF77BF90020FEF778F9E32007
:104D3000FEF772F90520FEF772F90020FEF76FF911
:104D40000A20FEF76CF90020FEF769F91C20FEF737
:104D500066F90020FEF763F93320FEF760F90020C2
:104D6000FEF75DF94420FEF75AF90020FEF757F9E7
:104D70005020FEF754F90020FEF751F96220FEF7AB
:104D80004EF90020FEF74BF97820FEF748F9002095
:104D9000FEF745F98820FEF742F90020FEF73FF9BB
:104DA0009720FEF73CF90020FEF739F9A620FEF720
:104DB00036F90020FEF733F9B720FEF730F900206E
:104DC000FEF72DF9C220FEF72AF90020FEF727F999
:104DD000C720FEF724F90020FEF721F9D120FEF7C5
:104DE0001EF90020FEF71BF9D520FEF718F9002068
:104DF000FEF715F9DD20FEF712F90020FEF70FF996
:104E0000F320FEF70CF90020FEF709F9E420FEF785
:104E100003F90120FEF703F90020FEF700F9012055
:104E2000FEF7FDF80020FEF7FAF80220FEF7F7F88B
:104E30000020FEF7F4F82A20FEF7F1F80020FEF734
:104E4000EEF83C20FEF7EBF80020FEF7E8F84B20E8
:104E5000FEF7E5F80020FEF7E2F85D20FEF7DFF848
:104E60000020FEF7DCF87420FEF7D9F80020FEF7EA
:104E7000D6F88420FEF7D3F80020FEF7D0F8932070
:104E8000FEF7CDF80020FEF7CAF8A220FEF7C7F81B
:104E90000020FEF7C4F8B320FEF7C1F80020FEF7AB
:104EA000BEF8BE20FEF7BBF80020FEF7B8F8C4201D
:104EB000FEF7B5F80020FEF7B2F8CD20FEF7AFF808
:104EC0000020FEF7ACF8D320FEF7A9F80020FEF78B
:104ED000A6F8DD20FEF7A3F80020FEF7A0F8F320E7
:104EE000FEF79DF80020FEF79AF8E520FEF794F80B
:104EF0000020FEF794F80020FEF791F80020FEF75E
:104F00008EF80020FEF78BF80220FEF788F80020CC
:104F1000FEF785F82920FEF782F80020FEF77FF8DB
:104F20003C20FEF77CF80020FEF779F84B20FEF7D6
:104F300076F80020FEF773F85D20FEF770F8002089
:104F4000FEF76DF87420FEF76AF80020FEF767F8A8
:104F50008420FEF764F80020FEF761F89320FEF746
:104F60005EF80020FEF75BF8A220FEF758F800205C
:104F7000FEF755F8B320FEF752F80020FEF74FF881
:104F8000BE20FEF74CF80020FEF749F8C420FEF7DB
:104F900046F80020FEF743F8CD20FEF740F8002049
:104FA000FEF73DF8D320FEF73AF80020FEF737F879
:104FB000DC20FEF734F80020FEF731F8F320FEF78E
:104FC0002EF80020FEF72BF8E620FEF725F811203A
:104FD000FEF725F80020FEF722F83420FEF71FF830
:104FE0000020FEF71CF85620FEF719F80020FEF707
:104FF00016F87620FEF713F80020FEF710F8772059
:10500000FEF70DF80020FEF70AF86620FEF707F815
:105010000020FEF704F88820FEF701F80020FDF7D5
:10502000FEFF9920FDF7FBFF0020FDF7F8FFBB20F6
:10503000FDF7F5FF0020FDF7F2FF9920FDF7EFFFE8
:105040000020FDF7ECFF6620FDF7E9FF0020FDF7EB
:10505000E6FF5520FDF7E3FF0020FDF7E0FF5520B8
:10506000FDF7DDFF0020FDF7DAFF4520FDF7D7FF54
:105070000020FDF7D4FF4320FDF7D1FF0020FDF70E
:10508000CEFF4420FDF7CBFF0020FDF7C8FFE7204F
:10509000FDF7C2FF3220FDF7C2FF0020FDF7BFFF82
:1050A0005520FDF7BCFF0020FDF7B9FF7620FDF786
:1050B000B6FF0020FDF7B3FF6620FDF7B0FF00202C
:1050C000FDF7ADFF6720FDF7AAFF0020FDF7A7FF62
:1050D0006720FDF7A4FF0020FDF7A1FF8720FDF763
:1050E0009EFF0020FDF79BFF9920FDF798FF002011
:1050F000FDF795FFBB20FDF792FF0020FDF78FFF26
:105100009920FDF78CFF0020FDF789FF7720FDF740
:1051100086FF0020FDF783FF4420FDF780FF00207D
:10512000FDF77DFF5620FDF77AFF0020FDF777FFA2
:105130002320FDF774FF0020FDF771FF3320FDF7FA
:105140006EFF0020FDF76BFF4520FDF768FF002094
:10515000FDF765FFE820FDF75FFF0020FDF75FFF2B
:105160000020FDF75CFF9920FDF759FF0020FDF7B7
:1051700056FF8720FDF753FF0020FDF750FF8820E2
:10518000FDF74DFF0020FDF74AFF7720FDF747FFB1
:105190000020FDF744FF6620FDF741FF0020FDF7EA
:1051A0003EFF8820FDF73BFF0020FDF738FFAA20D7
:1051B000FDF735FF0020FDF732FFBB20FDF72FFF85
:1051C0000020FDF72CFF9920FDF729FF0020FDF7B7
:1051D00026FF6620FDF723FF0020FDF720FF552066
:1051E000FDF71DFF0020FDF71AFF5520FDF717FF03
:1051F0000020FDF714FF4420FDF711FF0020FDF70C
:105200000EFF4420FDF70BFF0020FDF708FF55209F
:10521000FDF705FF0020FDF702FFE920FDF7FCFE8A
:10522000AA20FDF7FCFE0020FDF7F9FE0020FDF7A7
:10523000F6FE0020FDF7F3FE0020FDF7EDFEAA20AC
:10524000FDF7EDFECF20FDF7E7FE0020FDF7E7FEBE
:105250000020FDF7E4FE0020FDF7E1FE0020FDF751
:10526000DEFE0020FDF7DBFE0020FDF7D8FE00206B
:10527000FDF7D5FE0020FDF7D2FE0020FDF7CFFEA2
:105280000020FDF7CCFE0020FDF7C9FE0020FDF751
:10529000C6FE0020FDF7C3FE0020FDF7C0FE002083
:1052A000FDF7BDFE0020FDF7BAFE0020FDF7B7FEBA
:1052B000F020FDF7B1FE0020FDF7B1FE5020FDF714
:1052C000AEFE0020FDF7ABFE0020FDF7A8FE00209B
:1052D000FDF7A5FEF320FDF79FFE0020FDF79FFEE2
:1052E000F920FDF799FE0620FDF799FE1020FDF745
:1052F00096FE2920FDF793FE0020FDF790FE3A2050
:10530000FDF78AFE5520FDF78AFE1120FDF784FE89
:10531000642002F020FC2920FDF77EFE3520FDF7F9
:105320007BFE0020FDF77BFE5120FDF775FEFF2080
:10533000FDF775FE5320FDF76FFE2C20FDF76FFE85
:105340005520FDF769FE8220FDF769FE2C20FDF750
:1053500063FE02F0E9B8FE48808845F210518842A9
:105360007ED155214FF47040FDF765FEAA214FF222
:105370000100FDF760FE52214FF20200FDF75BFED7
:1053800008214FF20300FDF756FE01214FF2040001
:10539000FDF751FE0D214FF43040FDF74CFE0D217D
:1053A0004BF20100FDF747FE0D214BF20200FDF725
:1053B00042FE34214FF43640FDF73DFE34214BF2DE
:1053C0000160FDF738FE34214BF20260FDF733FE39
:1053D0000D214FF43140FDF72EFE0D214BF201104F
:1053E000FDF729FE0D214BF20210FDF724FE3421BA
:1053F0004FF43740FDF71FFE34214BF20170FDF7EB
:105400001AFE34214BF20270FDF715FE00214FF415
:105410003240FDF710FE00214BF20120FDF70BFE9C
:1054200000214BF20220FDF706FE24214FF4384004
:10543000FDF701FE24214BF60100FDF7FCFD2421C0
:105440004BF60200FDF7F7FD01214FF43F40FDF759
:10545000F2FD0F214FF43340FDF7EDFD0F2100E089
:10546000FEE34BF20130FDF7E6FD0F214BF2023077
:10547000FDF7E1FD34214FF43940FDF7DCFD342127
:105480004BF60110FDF7D7FD34214BF60210FDF766
:10549000D2FD08214FF43540FDF7CDFD08214BF238
:1054A0000150FDF7C8FD08214BF20250FDF7C3FD86
:1054B00003214FF44240FDF7BEFD24214FF43A4052
:1054C000FDF7B9FD24214BF60120FDF7B4FD2421A1
:1054D0004BF60220FDF7AFFD00214FF43C40FDF7F5
:1054E000AAFD78214BF60140FDF7A5FD00214BF602
:1054F0000240FDF7A0FD00214FF43D40FDF79BFD6C
:1055000078214BF60150FDF796FD00214BF6025035
:10551000FDF791FD00214FF43E40FDF78CFD642125
:105520004BF60160FDF787FD00214FF45140FDF778
:1055300082FD33214DF20110FDF77DFD00214DF27A
:105540000210FDF778FD34214DF20310FDF773FDD5
:1055500000214DF20410FDF76EFD3A214DF20510C9
:10556000FDF769FD00214DF20610FDF764FD4A21AB
:105570004DF20710FDF75FFD00214DF20810FDF719
:105580005AFD5C214DF20910FDF755FD00214DF249
:105590000A10FDF750FD81214DF20B10FDF74BFD78
:1055A00000214DF20C10FDF746FDA6214DF20D1025
:1055B000FDF741FD00214DF20E10FDF73CFDE52108
:1055C0004DF20F10FDF737FD01214DF21010FDF7E0
:1055D00032FD13214DF21110FDF72DFD01214DF289
:1055E0001210FDF728FD54214DF21310FDF723FD95
:1055F00001214DF21410FDF71EFD82214DF2151010
:10560000FDF719FD01214DF21610FDF714FDCA2119
:105610004DF21710FDF70FFD02214DF21810FDF7A6
:105620000AFD00214DF21910FDF705FD02214DF292
:105630001A10FDF700FD01214DF21B10FDF7FBFCD8
:1056400002214DF21C10FDF7F6FC34214DF21D1025
:10565000FDF7F1FC02214DF21E10FDF7ECFC672175
:105660004DF21F10FDF7E7FC02214DF22010FDF76F
:10567000E2FC84214DF22110FDF7DDFC02214DF208
:105680002210FDF7D8FCA4214DF22310FDF7D3FC26
:1056900002214DF22410FDF7CEFCB7214DF225106A
:1056A000FDF7C9FC02214DF22610FDF7C4FCCF2105
:1056B0004DF22710FDF7BFFC02214DF22810FDF737
:1056C000BAFCDE214DF22910FDF7B5FC02214DF2A6
:1056D0002A10FDF7B0FCF2214DF22B10FDF7ABFCC8
:1056E00002214DF22C10FDF7A6FCFE214DF22D10EB
:1056F000FDF7A1FC03214DF22E10FDF79CFC1021BB
:105700004DF22F10FDF797FC03214DF23010FDF7FD
:1057100092FC33214DF23110FDF78DFC03214DF247
:105720003210FDF788FC6D214DF23310FDF783FC3C
:1057300000214FF45240FDF77EFC33214DF2012051
:10574000FDF779FC00214DF20220FDF774FC01E029
:105750004A04002034214DF20320FDF76CFC0021A7
:105760004DF20420FDF767FC3A214DF20520FDF7CC
:1057700062FC00214DF20620FDF75DFC4A214DF24E
:105780000720FDF758FC00214DF20820FDF753FCDF
:105790005C214DF20920FDF74EFC00214DF20A205C
:1057A000FDF749FC81214DF20B20FDF744FC00215F
:1057B0004DF20C20FDF73FFCA6214DF20D20FDF728
:1057C0003AFC00214DF20E20FDF735FCE5214DF2AB
:1057D0000F20FDF730FC01214DF21020FDF72BFCCE
:1057E00013214DF21120FDF726FC01214DF212206C
:1057F000FDF721FC54214DF21320FDF71CFC012183
:105800004DF21420FDF717FC82214DF21520FDF713
:1058100012FC01214DF21620FDF70DFCCA214DF2BC
:105820001720FDF708FC02214DF21820FDF703FCBC
:1058300000214DF21920FDF7FEFB02214DF21A2046
:10584000FDF7F9FB01214DF21B20FDF7F4FB0221CE
:105850004DF21C20FDF7EFFB34214DF21D20FDF72A
:10586000EAFB02214DF21E20FDF7E5FB67214DF218
:105870001F20FDF7E0FB02214DF22020FDF7DBFBAE
:1058800084214DF22120FDF7D6FB02214DF222208A
:10589000FDF7D1FBA4214DF22320FDF7CCFB022123
:1058A0004DF22420FDF7C7FBB7214DF22520FDF76F
:1058B000C2FB02214DF22620FDF7BDFBCF214DF2A8
:1058C0002720FDF7B8FB02214DF22820FDF7B3FB9E
:1058D000DE214DF22920FDF7AEFB02214DF22A20F8
:1058E000FDF7A9FBF2214DF22B20FDF7A4FB0221CD
:1058F0004DF22C20FDF79FFBFE214DF22D20FDF7F0
:105900009AFB03214DF22E20FDF795FB10214DF25D
:105910002F20FDF790FB03214DF23020FDF78BFB8C
:1059200033214DF23120FDF786FB03214DF2322069
:10593000FDF781FB6D214DF23320FDF77CFB00214B
:105940004FF45340FDF777FB33214DF20130FDF763
:1059500072FB00214DF20230FDF76DFB34214DF258
:105960000330FDF768FB00214DF20430FDF763FBC7
:105970003A214DF20530FDF75EFB00214DF2063075
:10598000FDF759FB4A214DF20730FDF754FB00218A
:105990004DF20830FDF74FFB5C214DF20930FDF769
:1059A0004AFB00214DF20A30FDF745FB81214DF203
:1059B0000B30FDF740FB00214DF20C30FDF73BFBB7
:1059C000A6214DF20D30FDF736FB00214DF20E30D1
:1059D000FDF731FBE5214DF20F30FDF72CFB0121E6
:1059E0004DF21030FDF727FB13214DF21130FDF77A
:1059F00022FB01214DF21230FDF71DFB54214DF227
:105A00001330FDF718FB01214DF21430FDF713FBA5
:105A100082214DF21530FDF70EFB01214DF21630BB
:105A2000FDF709FBCA214DF21730FDF704FB0221F7
:105A30004DF21830FDF7FFFA00214DF21930FDF755
:105A4000FAFA02214DF21A30FDF7F5FA01214DF272
:105A50001B30FDF7F0FA02214DF21C30FDF7EBFA96
:105A600034214DF21D30FDF7E6FA02214DF21E30D1
:105A7000FDF7E1FA67214DF21F30FDF7DCFA022154
:105A80004DF22030FDF7D7FA84214DF22130FDF799
:105A9000D2FA02214DF22230FDF7CDFAA4214DF2C7
:105AA0002330FDF7C8FA02214DF22430FDF7C3FA86
:105AB000B7214DF22530FDF7BEFA02214DF2263016
:105AC000FDF7B9FACF214DF22730FDF7B4FA0221E4
:105AD0004DF22830FDF7AFFADE214DF22930FDF707
